:100000000C94E3000C940B010C940B010C940B0169
:100010000C940B010C940B010C940B010C940B0130
:100020000C940B010C940B010C940B010C940B0120
:100030000C940B010C940B010C940B010C940B0110
:100040000C94A8080C940B010C9476080C9450089E
:100050000C940B010C940B010C940B010C940B01F0
:100060000C940B010C940B0197A0895B5A0F830D24
:10007000C95F6035C2E907E18C24671E458E0863BD
:1000800025F0150A17BE0694F778EA4B001AC53E0C
:100090005EFCDBCB75230B2039B12158ED95385729
:1000A000AE147D88ABA844AF4AA547868B301BA60B
:1000B0004D929EE7536FE57A3CD385E6DC695C2977
:1000C000372EF528F4668F3641193FA101D85049E3
:1000D000D14C84BBD05912A9C8C4878274BC9F5626
:1000E000A4646DC6ADBA034034D9E2FA7C7B05CA7C
:1000F0002693767EFF5255D4CFCE3BE32F103A1194
:10010000B6BD1C2ADFB7AAD577F898022C9AA34669
:10011000DD99659BA72BAC09811627FD13626C6ED8
:100120004F71E0E8B2B97068DAF661E4FB22F2C11F
:10013000EED2900CBFB3A2F1513391EBF90EEF6BFD
:1001400031C0D61FB5C76A9DB854CCB07379322D73
:100150007F0496FE8AECCD5DDE72431D1848F38D58
:1001600080C34E42D73D9CB4970000000025002874
:10017000002B0000000000240027002A00000000DF
:1001800000230026002900040404040404040402DB
:100190000202020202030303030303010204081024
:1001A00020408001020408102001020408102000F1
:1001B0000000080002010000030407000000000026
:1001C00000000000F20811241FBECFEFD8E0DEBF10
:1001D000CDBF26E0AEE9B1E001C01D92A832B20762
:1001E000E1F711E0A0E0B1E0E2E5F7E202C005903E
:1001F0000D92AE39B107D9F710E0C3EED0E004C0DC
:100200002197FE010E946112C23ED107C9F70E94E8
:100210002E090C94A7130C940000E3EBF1E08491F9
:10022000EFE9F1E09491EBE8F1E0E491EE23C1F124
:10023000882339F08330E9F090F4813001F1823085
:1002400011F1F0E0EE0FFF1FE358FE4FA591B491BE
:10025000EC91E92381E090E029F580E00895873072
:10026000A9F08830C9F0843061F7809180008F7DDB
:1002700003C0809180008F7780938000E2CF84B5A7
:100280008F7784BDDECF84B58F7DFBCF8091B000AA
:100290008F778093B000D5CF8091B0008F7DF9CF5C
:1002A00080E090E00895AF92BF92CF92DF92EF92FC
:1002B000FF920F931F93CF93DF936C017B018B0110
:1002C000040F151FEB015E01AE18BF08C017D10760
:1002D00059F06991D601ED91FC910190F081E02DEA
:1002E000C6010995892B79F7C501DF91CF911F913F
:1002F0000F91FF90EF90DF90CF90BF90AF90089557
:1003000080E991E00895FC01538D448D252F30E064
:10031000842F90E0821B930B541710F0CF96089512
:1003200001970895FC01918D828D981761F0A28D3F
:10033000AE0FBF2FB11D5D968C91928D9F5F9F7305
:10034000928F90E008958FEF9FEF0895FC01918DBB
:10035000828D981731F0828DE80FF11D858D90E028
:1003600008958FEF9FEF0895FC01918D228D892FC5
:1003700090E0805C9F4F821B91098F7399270895AD
:1003800088E795E00E94B40121E0892B09F420E080
:10039000822F089580E090E0892B29F00E94C0010F
:1003A00081110C9400000895FC01A48DA80FB92FB1
:1003B000B11DA35ABF4F2C91848D90E001968F738D
:1003C0009927848FA689B7892C93A089B1898C91AC
:1003D000837080648C93938D848D981306C00288FB
:1003E000F389E02D80818F7D80830895EF92FF92C5
:1003F0000F931F93CF93DF93EC0181E0888F9B8D48
:100400008C8D98131AC0E889F989808185FF15C001
:100410009FB7F894EE89FF896083E889F989808124
:100420008370806480839FBF81E090E0DF91CF91F3
:100430001F910F91FF90EF900895F62E0B8D10E015
:100440000F5F1F4F0F731127E02E8C8D8E110CC084
:100450000FB607FCFACFE889F989808185FFF5CFCF
:10046000CE010E94D401F1CFEB8DEC0FFD2FF11DD9
:10047000E35AFF4FF0829FB7F8940B8FEA89FB890C
:1004800080818062CFCFCF93DF93EC01888D88236A
:10049000B9F0AA89BB89E889F9898C9185FD03C0E7
:1004A000808186FD0DC00FB607FCF7CF8C9185FFCC
:1004B000F2CF808185FFEDCFCE010E94D401E9CF3C
:1004C000DF91CF9108953FB7F8948091A501909165
:1004D000A601A091A701B091A80126B5A89B05C0CF
:1004E0002F3F19F00196A11DB11D3FBFBA2FA92FB3
:1004F000982F8827BC01CD01620F711D811D911DB0
:1005000042E0660F771F881F991F4A95D1F708951B
:100510002FB7F8946091A1017091A2018091A3017D
:100520009091A4012FBF0895282F382F37FD2095D3
:10053000229F020E20E0211D000C221F37FD209576
:100540001124822F08955F926F927F928F929F92D3
:10055000AF92BF92CF92DF92EF92FF920F931F93D1
:10056000CF93DF93062F272FF42E652E692F70E08F
:10057000FB01E859FF4F4491420F50E0FA01E8595E
:10058000FF4FE490E60C47595F4FFA014491862CE7
:10059000840EFB01E759FF4F7491270F30E0F901FA
:1005A000E859FF4FC490C60CF901E759FF4FE49199
:1005B0006E0E182F1695C02FC695AC2EBF2CB69474
:1005C0009B2C0E949402D82F802F0E949402082F07
:1005D0008F2D0E949402582E60E8610FD12CF601F5
:1005E000E859FF4FE4918E2F8F702C2F83FF262F19
:1005F0003C2F843030F08C3019F03B2D8E3009F4D4
:10060000362FE0FD2195E1FD319535952595231F88
:10061000F12CF701E859FF4FE4918E2F8F709C2F3A
:1006200083FF912F3C2F843030F08C3019F03B2D1C
:100630008E3009F4312FE0FD9195E1FD3195492F80
:1006400035954595431F942F42170CF039C0241B54
:100650007D2F279F020E20E0211D1124920F80E89C
:10066000782E7C0EA62DB0E0FD01E859FF4FE491F5
:100670008E2F8F70372D83FF362F272D843030F04B
:100680008C3019F02B2D8E3009F4262FE0FD31959A
:10069000E1FD219525953595321F482D50E0FA0151
:1006A000E859FF4FE4918E2F8F70272D83FF212F64
:1006B000843088F08C3011F08E3071F4912E0CC0A3
:1006C000842F821B282F3D2F239F020E20E0211D07
:1006D0001124921BC4CF972CE0FD2195E1FD91944C
:1006E000792D75952595271F23170CF0C2C0321B55
:1006F0007D2F379F030E30E0311D1124922E930E73
:1007000080E8B80EF601E759FF4FE4913E2F3F70A5
:100710008C2F33FF862F343008F4B7C03C3009F4F7
:10072000B6C03E3009F4B3C03B2DE0FD8195E1FD3C
:100730003195282F35952595231F822FF701E759ED
:10074000FF4FE491FE2FFF703C2FF3FF312FF43069
:1007500030F0FC3019F0AB2CFE3009F4A12EE0FD96
:100760003195E1FDA1947A2D75953595371F381790
:100770000CF08FC0C82FC31B2C2F7D2F279F020E7C
:1007800020E0211D1124C22FC30FFD01E759FF4FA7
:10079000E4913E2F3F70872D33FF862F343008F4CD
:1007A00084C03C3019F03E3009F06B2DE0FD81959E
:1007B000E1FD6195282F65952595261F822FFA0169
:1007C000E759FF4FE4915E2F5F70372D53FF312FB4
:1007D000543008F46CC05C3019F05E3009F01B2D09
:1007E000E0FD3195E1FD119515953595311F3817CF
:1007F0000CF05FC0831B482F7D2F479F040E40E005
:10080000411D1124340F99150CF05DC0292D291BB1
:10081000209F020E20E0211D1124920FC3170CF01F
:100820005BC03C1B309F030E30E0311D11243C0F98
:1008300093170CF05BC0391B452D349F030E30E03D
:10084000311D1124930F905C292F220F08F42FEFF4
:10085000822FDF91CF911F910F91FF90EF90DF904A
:10086000CF90BF90AF909F908F907F906F905F9050
:100870000895822F831B382F7D2F379F030E30E082
:10088000311D1124922E931A3BCF3C2F4ECF362F81
:100890004CCFE32FE81B2E2F7D2F279F020E20E049
:1008A000211D1124C32FC21B70CF672D7FCF172DA1
:1008B00097CF432F481B2D2F429F040E40E0411D30
:1008C0001124341BA0CF292F2919209F020E20E0CC
:1008D000211D1124921BA2CF2C2F231B209F020E1F
:1008E00020E0211D11243C2F321BA2CF292F231BD6
:1008F000752D279F020E20E0211D1124921BA3CFEE
:100900000F931F93CF93DF9320919F012F5F322F7F
:10091000377030939F0120FF2BC020E831FD206409
:10092000347009F02062205FFC01EC01239600E0A6
:1009300011E06485662329F070E0C8010E94051269
:100940006F5F6187322F369F030E30E0311D112417
:10095000311110C01682662311F061506187319603
:10096000EC17FD0731F7DF91CF911F910F9108959B
:1009700020E0D4CF31503683EECF4F925F926F920A
:100980007F928F92AF92BF92CF92DF92EF920F93AE
:100990001F93CF93DF933C01EB010E946302F301AD
:1009A00027853089621B730B6A307105B0F3F894A8
:1009B000E881F9817BB170626BB16F7D6BB9CA84DC
:1009C0008F812C2D281B822F2F83BF844A805B8030
:1009D0001D850C85DE841F5F0F5FD3949E81388553
:1009E000A984EB844181D20120E0C32F522F322F02
:1009F0003181442788943111380F08F43FEF8195F5
:100A0000889410FD430F4795889411FD430F479537
:100A1000889412FD430F4795889413FD430F479523
:100A2000889414FD430F4795889415FD430F47950F
:100A3000889416FD430F4795889417FD430F4795FB
:100A40008894232F1111242F8C0D422F002C7BB959
:100A500000C000C047FF6BB930812227889400C0D6
:100A6000002C6BB93111390F00C0002C7BB900C0CC
:100A700000C046FF6BB908F43FEF9195889400C021
:100A8000002C6BB900FD230F00C0002C7BB900C007
:100A900000C045FF6BB92795889401FD230F00C066
:100AA000002C6BB92795889400C0002C7BB900C03E
:100AB00000C044FF6BB902FD230F2795889400C046
:100AC000002C6BB903FD230F00C0002C7BB900C0C4
:100AD00000C043FF6BB92795889404FD230F00C025
:100AE000002C6BB92795889400C0002C7BB900C0FE
:100AF00000C042FF6BB905FD230F2795889400C005
:100B0000002C6BB906FD230F00C0002C7BB900C080
:100B100000C041FF6BB92795889407FD230F00C0E3
:100B2000002C6BB92795889400C0002C7BB900C0BD
:100B300000C040FF6BB9432F0111422F9A0D00C036
:100B4000002C6BB900C000C0002C7BB900C000C0F5
:100B500047FF6BB932812227889400C0002C6BB903
:100B600031113C0F00C0002C7BB900C000C046FF13
:100B70006BB908F43FEFEB0DF11D00C0002C6BB911
:100B8000D0FC230F00C0002C7BB900C000C045FF83
:100B90006BB927958894D1FC230F00C0002C6BB94A
:100BA0002795889400C0002C7BB900C000C044FF8A
:100BB0006BB9D2FC230F2795889400C0002C6BB929
:100BC000D3FC230F00C0002C7BB900C000C043FF42
:100BD0006BB927958894D4FC230F00C0002C6BB907
:100BE0002795889400C0002C7BB900C000C042FF4C
:100BF0006BB9D5FC230F2795889400C0002C6BB9E6
:100C0000D6FC230F00C0002C7BB900C000C041FF00
:100C10006BB927958894D7FC230F00C0002C6BB9C3
:100C20002795889400C0002C7BB900C000C040FF0D
:100C30006BB9432FD110422FC19500C0002C6BB966
:100C4000CE0D00C000C07BB900C000C047FF6BB92B
:100C500031812227889400C0002C6BB93111380FE4
:100C600000C0002C7BB900C000C046FF6BB908F47F
:100C70003FEF8195889400C0002C6BB910FD230FC5
:100C800000C0002C7BB900C000C045FF6BB92795A0
:100C9000889411FD230F00C0002C6BB92795889410
:100CA00000C0002C7BB900C000C044FF6BB912FD2E
:100CB000230F2795889400C0002C6BB913FD230FD8
:100CC00000C0002C7BB900C000C043FF6BB9279562
:100CD000889414FD230F00C0002C6BB927958894CD
:100CE00000C0002C7BB900C000C042FF6BB915FDED
:100CF000230F2795889400C0002C6BB916FD230F95
:100D000000C0002C7BB900C000C041FF6BB9279523
:100D1000889417FD230F00C0002C6BB92795889489
:100D200000C0002C7BB900C000C040FF6BB9432F4E
:100D30001111422F8C0D00C0002C6BB9119709F0D6
:100D400086CE20EE31E0D2010E943B12DC01CB01C5
:100D5000F4E0B695A79597958795FA95D1F730E089
:100D600020E0B901EAE94E9E040C611D5E9E600D13
:100D7000711D1124650D711D860F971FA11DB11DD9
:100D8000893E43E09407A105B10508F434C0885EAC
:100D90009340A109B10942E0B695A795979587952B
:100DA0004A95D1F747E0849F080E211D949F200D9E
:100DB000311D1124290F311D60919E0170E0860FB5
:100DC000971F820F931F4091A1015091A201609142
:100DD000A3017091A401292F3327420F531F611DD6
:100DE000711D4093A1015093A2016093A3017093E0
:100DF000A40180939E0178940E946302F301708B9A
:100E00006787DF91CF911F910F91EF90DF90CF9087
:100E1000BF90AF908F907F906F905F904F900895AC
:100E2000559A08950F931F93CF93DF93CDB7DEB7F5
:100E300062970FB6F894DEBF0FBECDBF8C01F901EB
:100E4000DC011C968C917A8369835C834B835E837F
:100E50004D8390819D8791819E8792819F8781306C
:100E6000F1F4CE0101960E94800483E0888B1A8AF7
:100E7000198AD801ED91FC910484F585E02DBE011D
:100E80006F5F7F4FC801099562960FB6F894DEBF79
:100E90000FBECDBFDF91CF911F910F9108951C869A
:100EA0001B861A86198618861F82DFCF0F931F9321
:100EB000CF93DF93CDB7DEB762970FB6F894DEBF5E
:100EC0000FBECDBF8C01F901DC011C968C917A8399
:100ED00069835C834B835E834D8390819D87918181
:100EE0009E8792819F878130E9F4CE0101960E940E
:100EF0008004188A1A8A198AD801ED91FC91048419
:100F0000F585E02DBE016F5F7F4FC80109956296A0
:100F10000FB6F894DEBF0FBECDBFDF91CF911F910A
:100F20000F9108951C861B861A86198618861F82C3
:100F3000E0CF90E080E00895FC01858596850895D6
:100F4000CF93DF9300D000D000D0CDB7DEB7AB0198
:100F50001C821D821E82DC01ED91FC910190F081CA
:100F6000E02D19821A821B829E012F5F3F4FBE0126
:100F70006C5F7F4F099526960FB6F894DEBF0FBEC3
:100F8000CDBFDF91CF910895FC0101900020E9F7DA
:100F90003197AF01481B590BBC0188E795E00C94D1
:100FA00053018F929F92AF92BF92CF92DF92EF92B6
:100FB000FF920F931F93CF93DF93CDB7DEB7A19727
:100FC0000FB6F894DEBF0FBECDBF6C01990FEE08CF
:100FD000FF08F7FE41C06DE288E795E00E94F60148
:100FE0008C0122273327A9012C193D094E095F09DD
:100FF00019A2CE0181967C019AE0892E912CA12C18
:10100000B12CCA01B901A50194010E941912605DB9
:10101000F70162937F01211531054105510589F7DB
:1010200090E080E0309719F0CF010E94C407800F54
:10103000911FA1960FB6F894DEBF0FBECDBFDF9112
:10104000CF911F910F91FF90EF90DF90CF90BF90C5
:10105000AF909F908F900895A701960119A28E01DD
:101060000F5D1F4F8AE0C82ED12CE12CF12CCA0154
:10107000B901A70196010E941912605DF8016293FF
:101080008F01211531054105510589F790E080E078
:10109000309779F2CF010E94C407CBCF0E949B13F7
:1010A0001F920F920FB60F9211242F933F934F93DD
:1010B0005F936F937F938F939F93AF93BF93EF93C0
:1010C000FF9388E795E00E94D401FF91EF91BF91D3
:1010D000AF919F918F917F916F915F914F913F91D0
:1010E0002F910F900FBE0F901F9018951F920F9287
:1010F0000FB60F9211242F938F939F93EF93FF932B
:10110000E0918805F09189058081E0918E05F0914C
:101110008F0582FD1BC09081809191058F5F8F7339
:1011200020919205821741F0E0919105F0E0E85896
:10113000FA4F958F80939105FF91EF919F918F9139
:101140002F910F900FBE0F901F9018958081F4CFB4
:101150001F920F920FB60F9211242F933F938F93EC
:101160009F93AF93BF938091A1019091A201A09111
:10117000A301B091A4013091A00123E0230F2D37EA
:1011800058F50196A11DB11D2093A0018093A101E6
:101190009093A201A093A301B093A4018091A50113
:1011A0009091A601A091A701B091A8010196A11D5F
:1011B000B11D8093A5019093A601A093A701B093C0
:1011C000A801BF91AF919F918F913F912F910F9067
:1011D0000FBE0F901F90189526E8230F0296A11DB1
:1011E000B11DD2CFE8E7F5E01382128288EE93E0DA
:1011F000A0E0B0E084839583A683B78388E791E07D
:101200009183808385EC90E09587848784EC90E0DF
:101210009787868780EC90E0918B808B81EC90E0C3
:10122000938B828B82EC90E0958B848B86EC90E0A4
:10123000978B868B118E128E138E148EE5E1F6E05D
:101240008FEF808312821182148613868FEF9FEFB7
:10125000DC0187839087A187B2870895CF93DF93BE
:10126000CDB7DEB7C655D1090FB6F894DEBF0FBEB5
:10127000CDBF789484B5826084BD84B5816084BD1F
:1012800085B5826085BD85B5816085BD80916E0024
:10129000816080936E001092810080918100826055
:1012A0008093810080918100816080938100809192
:1012B00080008160809380008091B1008460809381
:1012C000B1008091B00081608093B00080917A007D
:1012D000846080937A0080917A00826080937A00A3
:1012E00080917A00816080937A0080917A00806892
:1012F00080937A001092C100E0918805F0918905F1
:1013000082E08083E0918405F09185051082E09170
:101310008605F091870580E1808310929005E09129
:101320008C05F0918D0586E08083E0918A05F0912F
:101330008B05808180618083E0918A05F0918B0527
:10134000808188608083E0918A05F0918B0580819F
:1013500080688083E0918A05F0918B0580818F7D84
:1013600080830E9463024B015C0178EEC72E73E01C
:10137000D72EE12CF12C0E946302681979098A09A1
:101380009B09683E734081059105A8F321E0C21ACC
:10139000D108E108F10838EE830E33E0931EA11C5A
:1013A000B11CC114D104E104F10429F78091BC01FE
:1013B000811145C01092AE011092AD018FEF809364
:1013C000B1018093B2018093B3018093B401809303
:1013D000B5018093B60181E08093B7011092B90105
:1013E0001092B8011092B0011092AF0180912405C3
:1013F00090912505892B31F48BEA91E09093250596
:1014000080932405E091A901F091AA01309721F081
:101410008BEA91E0958384838BEA91E09093AA0113
:101420008093A9011092BB011092BA0186E691E067
:101430009093AC018093AB0181E08093BC01559AFD
:1014400084EC91E09093AE018093AD018EE191E048
:101450009093B9018093B801809118069091190674
:10146000A0911A06B0911B06843CE9E09E07A105F5
:10147000B10520F484EC99E0A0E0B0E08093180678
:1014800090931906A0931A06B0931B068FEF8093D2
:10149000B10180EB8093B20180EF8093B30180E4CF
:1014A000809315068AE090E00E947612FC018EE19E
:1014B00091E09183808384EC91E093838283148212
:1014C00015821682178211861086F0932B05E09301
:1014D0002A0590E080E00E94A60F90E0909307011B
:1014E0008093060181E090E00E94A60F90E0909327
:1014F00005018093040182E090E00E94A60F90E035
:10150000909303018093020183E090E00E94A60F74
:1015100090E09093320580933105EFE9F1E024915A
:10152000EBE8F1E084918823C9F090E0880F991FDF
:10153000FC01ED58FE4F45915491FC01E759FE4FD7
:10154000A591B4919FB7F894FA01808120958223E8
:1015500080838C91E22FE823EC939FBF0E94880246
:1015600000917405109175052091760530917705ED
:10157000601B710B820B930B643171058105910522
:1015800008F4A1C30E940D010197C9F480912E05B2
:10159000811115C080912C0590912D050196909395
:1015A0002D0580932C0580910001909101018A30D6
:1015B00091050CF0D3C0F1E0F0932E0505C00E9418
:1015C0000D01892B09F4D0C080910601909107018B
:1015D0008130910509F090C1E0902A05F0902B052B
:1015E000C0903105D0903205A0900201B090030167
:1015F00040900401509005010E948802D701149682
:101600000D911D912D913C911797601B710B820BD1
:10161000930B643171058105910508F4BFC0312C2D
:10162000212C10E000E0052C000C66087708C501AD
:10163000BB0CAA0BBB0B29968CAF9DAFAEAFBFAF57
:101640002997C601DD0CAA0BBB0B2D968CAF9DAF65
:10165000AEAFBFAF2D97D7018D919C911197081711
:1016600019070CF089C018968D919C91BAE0B89F2B
:10167000B001B99F700D1124A801460F571FC10179
:101680000E94A302682F70E090E080E00E94D310D7
:1016900020E030E04FE753E40E9429104B015C0149
:1016A000F70160857185FEE1F69FA001F79F500D5F
:1016B0001124400F511FC8010E94A302D7011896A0
:1016C0006D917C91ECE2F1E06E9FA0016F9F500D57
:1016D0007E9F500D1124400F511FC8010E94A3028C
:1016E0006801CC0CDD1CC00ED11ED70112968D9165
:1016F0009C91C80ED91EC301B2010E94D310A5014E
:1017000094010E9464110E949B10F6016083299647
:101710006CAD7DAD8EAD9FAD29970E94D310A50114
:1017200094010E9464110E949B10D60111966C9343
:101730002D966CAD7DAD8EAD9FAD2D970E94D310D3
:10174000A50194010E9464110E949B10F60162831E
:101750000F5F1F4FFAE02F0E311C7DCF0A97909339
:1017600001018093000127CF80912E05882309F481
:101770002BCF10922E0528CF0E948802D7011496F5
:101780006D937D938D939C93179718968D919C9153
:101790001997019619969C938E931897F0901506B9
:1017A0008091180690911906A0911A06B0911B0617
:1017B000892B8A2B8B2BD9F00E946302009126057E
:1017C000109127052091280530912905601B710B88
:1017D000820B930B009118061091190620911A069E
:1017E00030911B066017710782079307C8F20E94A9
:1017F00063026093260570932705809328059093D4
:101800002905E0912006F0912106309759F040918A
:101810001C0650911D0660911E0670911F068F2DAB
:101820000995F82E00912405109125054F2C512C77
:10183000712C612C0115110509F4EBC1D8011C961E
:10184000EC901C97809116069091170684369105AE
:1018500010F41C961C92D801ED91FC91A280B380EB
:1018600019821A821B82FF2089F1F8013696D12C49
:10187000C12C2191222319F19280992001F130E0AD
:1018800050E040E02F5F3F4F4F4F5F4FC301B20129
:101890000E94F5119B01AC01892D90E0B0E0A0E021
:1018A000BC01CD016F5F7F4F8F4F9F4F0E94F5119D
:1018B000A1E0B0E0AC0FBD1FAC0DBD1D8C93BFEF20
:1018C000CB1ADB0A23E0C216D10499F6D8011D9683
:1018D0004D915C911E9712966D917C919E012F5FA8
:1018E0003F4FC801F5010995D8011C96EC921C9751
:1018F00014960D911C919ECF029709F04FCFC09086
:101900002A05D0902B05E0913105F09132052F96F4
:10191000FFAFEEAF2F9720910201309103012B967C
:101920003FAF2EAF2B9780910401909105016596F2
:101930009FAF8EAF65970E948802D60114960D91D5
:101940001D912D913C911797601B710B820B930B8E
:10195000643171058105910508F420CF8D919C912A
:101960008115B0E29B07C0F5880F991F880F991F5A
:101970000E9476128C0184E4EEE0F1E0DE01119623
:1019800001900D928A95E1F7F601408551852796E1
:101990001FAF0EAF2797F80190E080E0D6012D90A1
:1019A0003C90119782159305D4F4BC01660F771F04
:1019B000680F791F12962D913C91D901A60FB71F80
:1019C0001C9211961C92119712961C9211921192D0
:1019D000119211920196E2CF8FEF9FEFC9CF5A017A
:1019E000B1E3AB0EB11CFE0131964F012A01440C4C
:1019F000551C440C551C400E511ECA01880F991FDE
:101A000022273327281B390B63963FAF2EAF6397EE
:101A100028EF2403C001259F900D112467969FAFE6
:101A20008EAF6797F12CE12CA214B304D4F4B7FC69
:101A300018C0370194EC690E711C640C751CD4013C
:101A40002D913D914D915C91F30160817181828175
:101A500093810E94BD0FD3016D937D938D939C93D1
:101A6000139763968EAD9FAD63978A0D9B1D97FD6F
:101A700015C06796EEADFFAD6797EE0DFF1DEC53F9
:101A8000FF4F9F01240D351DF40180819181A281BA
:101A9000B381F90180839183A283B383FFEFAF1AEF
:101AA000BF0A24E0820E911C34E0E30EF11C84E4B2
:101AB000E816F10409F0B8CFF12CE12C6596AEAD33
:101AC000BFAD65972D01BB0F660877082B968EADCD
:101AD0009FAD2B97092E000CAA0BBB0B2D968CAF3C
:101AE0009DAFAEAFBFAF2D972F968EAD9FAD2F9709
:101AF000092E000CAA0BBB0B61968CAF9DAFAEAF4D
:101B0000BFAF6197D6018D919C91E816F9060CF054
:101B100063C020E030E040E85FE32796EEADFFAD24
:101B2000279760817181828193810E945F111816CD
:101B300064F480E090E0A0E8BFE32796EEADFFAD4F
:101B4000279780839183A283B3832796AEADBFADE1
:101B500027978D909D90AD90BD902796BFAFAEAF6B
:101B600027971701220C331C2E0C3F1CF601828193
:101B70009381280E391EC301B2010E94D310A50122
:101B800094010E9464110E94A210D1016C932D96C1
:101B90006CAD7DAD8EAD9FAD2D970E94D310A5018C
:101BA00094010E9464110E94A210F1016183619668
:101BB0006CAD7DAD8EAD9FAD61970E94D310A50138
:101BC00094010E9464110E94A210D10112966C939C
:101BD000BFEFEB1AFB0A96CF0E948802F6016483DE
:101BE0007583868397838085918501969187808709
:101BF00020813181285231092817390714F41186C0
:101C000010860115110509F4C9CDC8010E941213EF
:101C1000C5CD80912205909123058C010F5F1F4F48
:101C200010932305009322054997B4F10E9488027E
:101C3000C0901E05D0901F05E0902005F090210572
:101C40009B01AC012C193D094E095F0921F421E0EB
:101C500030E040E050E0E8EEF3E00E9FB0010F9F6F
:101C6000700D1E9F700D1124072E000C880B990B10
:101C70000E9419123093170620931606109223051E
:101C8000109222050E94880260931E0570931F0522
:101C900080932005909321050E948802609374052B
:101CA00070937505809376059093770580E090E0BA
:101CB000892B09F453CC0E94C001882309F44ECC2F
:101CC0000E9400004BCC86E891E00E94C4078CE89B
:101CD00091E00E94C4070E9488026B017C0188E7A2
:101CE00095E00E94B401181619060CF04FC08091BF
:101CF000730581114BC088E795E00E949201182F6F
:101D00000E9488026C197D098E099F09653671054C
:101D100081059105D8F51C3319F4F1E0F0933005F5
:101D2000809130058823D9F20E9488026C197D09C0
:101D30008E099F09653671058105910580F688E752
:101D400095E00E94B4011816190654F788E795E04B
:101D50000E94920190912F05E92FF0E0ED5CFA4F7F
:101D60008E3359F080839F5F903220F02FE12093D3
:101D70002F05D6CF90932F05D3CF10821092300528
:101D800010922F0531E030937305CACF8FE891E0B0
:101D90000E94C4078CE891E00E94C40788E795E0A0
:101DA0000E94430280917305882309F47FCF63E387
:101DB00075E083E595E00E94A01366E971E083E594
:101DC00095E00E94720F0E94540F90930701809338
:101DD000060166E971E090E080E00E94720F0E94C7
:101DE000540F909305018093040166E971E090E03F
:101DF00080E00E94720F0E94540F90930301809321
:101E0000020166E971E090E080E00E94720F0E949A
:101E1000540F90933205809331056091060190E054
:101E200080E00E94AE0F6091040181E090E00E948A
:101E3000AE0F6091020182E090E00E94AE0F6091CF
:101E4000310583E090E00E94AE0F88E991E00E94A6
:101E5000C40780910601909107010E94D1078BE988
:101E600091E00E94C40780910401909105010E94B5
:101E7000D1078BE991E00E94C40780910201909103
:101E800003010E94D1078BE991E00E94C407809171
:101E90003105909132050E94D10784E991E00E94BA
:101EA000C4071092730502CFFC0188279927E89494
:101EB00021912032E9F3293010F02E30C8F32B3273
:101EC00041F02D3239F4689404C00E949E0F820FB5
:101ED000911D219120532A30C0F31EF490958195D5
:101EE0009F4F089542E256E00E94770F0895FA014D
:101EF000A191B081009719F41097E1F0CD01DC01B8
:101F0000CD010D90002011F4C00113C0FB012191FF
:101F1000222319F02015D9F7F3CFFB0121912015C9
:101F200019F41E92119606C02223C1F70D900020CD
:101F3000A1F7D001FA01A193B08308957AE0979FA9
:101F4000902D879F802D910D11240895F999FECF32
:101F500092BD81BDF89A992780B50895262FF999E9
:101F6000FECF1FBA92BD81BD20BD0FB6F894FA9A7C
:101F7000F99A0FBE019608955058BB27AA270E94D0
:101F8000D40F0C9425110E94171138F00E941E11D5
:101F900020F039F49F3F19F426F40C9414110EF438
:101FA000E095E7FB0C940E11E92F0E94361158F3CF
:101FB000BA17620773078407950720F079F4A6F52E
:101FC0000C9458110EF4E0950B2EBA2FA02D0B0196
:101FD000B90190010C01CA01A0011124FF27591B6E
:101FE00099F0593F50F4503E68F11A16F040A22F74
:101FF000232F342F4427585FF3CF469537952795E5
:10200000A795F0405395C9F77EF41F16BA0B620BE3
:10201000730B840BBAF09150A1F0FF0FBB1F661F2A
:10202000771F881FC2F70EC0BA0F621F731F841F6D
:1020300048F4879577956795B795F7959E3F08F093
:10204000B0CF9395880F08F09927EE0F9795879555
:1020500008950E943D100C9425110E941E1158F005
:102060000E94171140F029F45F3F29F00C940E11E3
:1020700051110C9459110C9414110E94361168F3EB
:102080009923B1F3552391F3951B550BBB27AA2731
:1020900062177307840738F09F5F5F4F220F331F6B
:1020A000441FAA1FA9F335D00E2E3AF0E0E832D033
:1020B00091505040E695001CCAF72BD0FE2F29D036
:1020C000660F771F881FBB1F261737074807AB0708
:1020D000B0E809F0BB0B802DBF01FF2793585F4F7D
:1020E0003AF09E3F510578F00C940E110C94591162
:1020F0005F3FE4F3983ED4F3869577956795B7955F
:10210000F7959F5FC9F7880F911D9695879597F969
:102110000895E1E0660F771F881FBB1F62177307E2
:102120008407BA0720F0621B730B840BBA0BEE1FF7
:1021300088F7E09508950E94A2106894B1110C945C
:10214000591108950E943E1188F09F5798F0B92FB9
:102150009927B751B0F0E1F0660F771F881F991FDC
:102160001AF0BA95C9F714C0B13091F00E94581115
:10217000B1E008950C945811672F782F8827B85F25
:1021800039F0B93FCCF3869577956795B395D9F734
:102190003EF490958095709561957F4F8F4F9F4F3E
:1021A0000895E89409C097FB3EF49095809570954A
:1021B00061957F4F8F4F9F4F9923A9F0F92F96E993
:1021C000BB279395F695879577956795B795F11108
:1021D000F8CFFAF4BB0F11F460FF1BC06F5F7F4FA5
:1021E0008F4F9F4F16C0882311F096E911C07723B7
:1021F00021F09EE8872F762F05C0662371F096E8C0
:10220000862F70E060E02AF09A95660F771F881F8E
:10221000DAF7880F9695879597F9089597F99F674C
:1022200080E870E060E008959FEF80EC089500245E
:102230000A941616170618060906089500240A942B
:1022400012161306140605060895092E0394000CB1
:1022500011F4882352F0BB0F40F4BF2B11F460FF40
:1022600004C06F5F7F4F8F4F9F4F089557FD905869
:10227000440F551F59F05F3F71F04795880F97FB4A
:10228000991F61F09F3F79F0879508951216130604
:102290001406551FF2CF4695F1DF08C01616170633
:1022A0001806991FF1CF8695710561050894089568
:1022B000E894BB2766277727CB0197F908950E94FA
:1022C000D11108F48FEF08950E9477110C94251115
:1022D0000E94171138F00E941E1120F0952311F072
:1022E0000C940E110C94141111240C9459110E9489
:1022F000361170F3959FC1F3950F50E0551F629F03
:10230000F001729FBB27F00DB11D639FAA27F00D4E
:10231000B11DAA1F649F6627B00DA11D661F829F75
:102320002227B00DA11D621F739FB00DA11D621F5A
:10233000839FA00D611D221F749F3327A00D611D77
:10234000231F849F600D211D822F762F6A2F112459
:102350009F5750409AF0F1F088234AF0EE0FFF1F8C
:10236000BB1F661F771F881F91505040A9F79E3FE3
:10237000510580F00C940E110C9459115F3FE4F359
:10238000983ED4F3869577956795B795F795E79539
:102390009F5FC1F7FE2B880F911D9695879597F942
:1023A0000895990F0008550FAA0BE0E8FEEF1616E6
:1023B0001706E807F907C0F012161306E407F50739
:1023C00098F0621B730B840B950B39F40A2661F0AD
:1023D000232B242B252B21F408950A2609F4A14050
:1023E000A6958FEF811D811D0895DB018F939F932B
:1023F0000E944212BF91AF91A29F800D911DA39F99
:10240000900DB29F900D1124089597FB072E16F49E
:10241000009407D077FD09D00E944D1207FC05D02B
:102420003EF4909581959F4F0895709561957F4FEB
:102430000895A1E21A2EAA1BBB1BFD010DC0AA1F05
:10244000BB1FEE1FFF1FA217B307E407F50720F01D
:10245000A21BB30BE40BF50B661F771F881F991F98
:102460001A9469F760957095809590959B01AC01E1
:10247000BD01CF0108950E946712B7FF0895821B26
:10248000930B08950E946712A59F900DB49F900D25
:10249000A49F800D911D11240895AA1BBB1B51E11F
:1024A00007C0AA1FBB1FA617B70710F0A61BB70BC4
:1024B000881F991F5A95A9F780959095BC01CD0169
:1024C0000895EE0FFF1F0590F491E02D0994A29F4F
:1024D000B001B39FC001A39F700D811D1124911DF8
:1024E000B29F700D811D1124911D08950F931F93AC
:1024F000CF93DF938230910510F482E090E0E09179
:102500002606F091270630E020E0B0E0A0E030970A
:1025100099F42115310509F44AC0281B390B2430E0
:102520003105D8F58A819B816115710589F1FB011F
:1025300093838283FE0111C0408151810281138106
:1025400048175907E0F04817590799F4109761F0B8
:1025500012960C93129713961C933296CF01DF912B
:10256000CF911F910F91089500932606109327068F
:10257000F4CF2115310551F04217530738F0A90166
:10258000DB019A01BD01DF01F801C1CFEF01F9CFF5
:102590009093270680932606CDCFFE01E20FF31F0E
:1025A000819391932250310939832883D7CF209189
:1025B000240630912506232B41F420910A01309105
:1025C0000B013093250620932406209108013091B9
:1025D00009012115310541F42DB73EB740910C0199
:1025E00050910D01241B350BE0912406F091250636
:1025F000E217F307A0F42E1B3F0B2817390778F0DA
:10260000AC014E5F5F4F2417350748F04E0F5F1F38
:102610005093250640932406819391939FCFF0E039
:10262000E0E09CCFCF93DF930097E9F0FC01329775
:1026300013821282A0912606B0912706ED0130E0A8
:1026400020E01097A1F420813181820F931F209107
:102650002406309125062817390709F061C0F09348
:102660002506E0932406DF91CF910895EA01CE1765
:10267000DF07E8F54A815B819E0141155105B1F7FD
:10268000E901FB83EA8349915991C40FD51FEC17E7
:10269000FD0761F4808191810296840F951FE90105
:1026A00099838883828193819B838A83F0E0E0E031
:1026B00012968D919C9113970097B9F52D913C91AD
:1026C0001197CD010296820F931F2091240630911D
:1026D00025062817390739F6309751F51092270645
:1026E00010922606B0932506A0932406BCCFD38370
:1026F000C28340815181840F951FC817D90761F4A7
:102700004E5F5F4F88819981480F591F51834083E5
:102710008A819B81938382832115310509F0B0CF93
:10272000F0932706E09326069ECFFD01DC01C0CF83
:1027300013821282D7CF81E090E0F8940C94A71313
:10274000FB01DC0101900D920020E1F70895F8945F
:02275000FFCFB9
:1027520064004000FF000100000028068000CDCC8C
:10276200CC3D9A99193ECDCC4C3E9A99993ECDCC0E
:10277200CC3E9A99193FCDCC4C3F0000803F0000DF
:10278200803F0000803FCDCC4C3F9A99193FCDCC81
:10279200CC3E9A99993ECDCC4C3E9A99193ECDCCDD
:1027A200CC3D000000004E084E084E08A0079C07D2
:1027B200990700000000560712071007A0079C07A0
:1027C2008001BD0400000000F601530183014302B1
:1027D200B4019201A6013C584F4E3E000D0A003C46
:0E27E200584F46463E002C003C20002C2000A4
:107800000C94343C0C94513C0C94513C0C94513CE1
:107810000C94513C0C94513C0C94513C0C94513CB4
:107820000C94513C0C94513C0C94513C0C94513CA4
:107830000C94513C0C94513C0C94513C0C94513C94
:107840000C94513C0C94513C0C94513C0C94513C84
:107850000C94513C0C94513C0C94513C0C94513C74
:107860000C94513C0C94513C11241FBECFEFD8E036
:10787000DEBFCDBF11E0A0E0B1E0ECE9FFE702C060
:1078800005900D92A230B107D9F712E0A2E0B1E065
:1078900001C01D92AD30B107E1F70E942D3D0C945F
:1078A000CC3F0C94003C982F959595959595959582
:1078B000905D8F708A307CF0282F295A8091C0000B
:1078C00085FFFCCF9093C6008091C00085FFFCCF60
:1078D0002093C6000895282F205DF0CF982F809127
:1078E000C00085FFFCCF9093C6000895EF92FF92F1
:1078F0000F931F93EE24FF2487018091C00087FD22
:1079000017C00894E11CF11C011D111D81E4E8164B
:1079100082E4F8068FE0080780E0180770F3E09132
:107920000401F091050109958091C00087FFE9CF1E
:107930008091C6001F910F91FF90EF9008950E94D3
:10794000763C982F8091C00085FFFCCF9093C600B5
:1079500091362CF490330CF09053892F089597555D
:10796000892F08951F930E949F3C182F0E949F3CCF
:107970001295107F810F1F9108951F93182F882350
:1079800021F00E94763C1150E1F71F9108951F935A
:10799000182F0E94763C803249F0809103018F5F5E
:1079A000809303018530C1F01F9108958091C0003C
:1079B00085FFFCCF84E18093C6008091C00085FFE5
:1079C000FCCF1093C6008091C00085FFFCCF80E102
:1079D0008093C6001F910895E0910401F091050184
:1079E00009951F9108950E94763C803241F0809164
:1079F00003018F5F80930301853081F008958091AA
:107A0000C00085FFFCCF84E18093C6008091C00058
:107A100085FFFCCF80E18093C6000895E0910401CA
:107A2000F09105010995089540E951E08823A1F0FE
:107A30002D9A28EE33E0FA013197F1F721503040CA
:107A4000D1F72D9828EE33E0FA013197F1F7215064
:107A50003040D1F7815061F708953F924F925F9285
:107A60006F927F928F929F92AF92BF92CF92DF924E
:107A7000EF92FF920F931F93CF93DF93000080E16B
:107A80008093C4001092C50088E18093C10086E015
:107A90008093C2005098589A259A81E00E94143D24
:107AA00024E1F22E9EE1E92E85E9D82E0FE0C02ECA
:107AB00010E1B12EAA24A394B1E49B2EA6E58A2E50
:107AC000F2E57F2EE0E26E2E79E4572E63E5462E36
:107AD00050E5352E0E94763C8033B1F18133B9F107
:107AE000803409F46FC0813409F476C0823409F41B
:107AF00085C0853409F488C0803531F1823521F1A3
:107B0000813511F1853509F485C0863509F48DC0BC
:107B1000843609F496C0843709F403C1853709F423
:107B200072C1863709F466C0809103018F5F80932C
:107B30000301853079F6E0910401F0910501099582
:107B40000E94763C803351F60E94F33CC3CF0E94E2
:107B5000763C803249F78091C00085FFFCCFF092DF
:107B6000C6008091C00085FFFCCF9092C600809136
:107B7000C00085FFFCCF8092C6008091C00085FFC9
:107B8000FCCF7092C6008091C00085FFFCCF609250
:107B9000C6008091C00085FFFCCF5092C600809146
:107BA000C00085FFFCCF4092C6008091C00085FFD9
:107BB000FCCF3092C6008091C00085FFFCCFB09210
:107BC000C60088CF0E94763C863808F4BDCF0E945C
:107BD000763C0E94F33C7ECF0E94763C803809F4CC
:107BE0009CC0813809F40BC1823809F43CC1883942
:107BF00009F48FC080E00E94C73C6CCF84E10E94F2
:107C0000BD3C0E94F33C66CF85E00E94BD3C0E94D3
:107C1000F33C60CF0E94763C809306010E94763C44
:107C2000809307010E94F33C55CF0E94763C80333D
:107C300009F41DC183E00E94BD3C80E00E94C73C66
:107C400049CF0E94763C809309020E94763C809343
:107C5000080280910C028E7F80930C020E94763C79
:107C6000853409F415C18091080290910902892B8D
:107C700089F000E010E00E94763CF801E85FFE4FDA
:107C800080830F5F1F4F80910802909109020817AF
:107C9000190788F30E94763C803209F045CF809125
:107CA0000C0280FF01C16091060170910701660F0F
:107CB000771F7093070160930601A0910802B091AD
:107CC00009021097C9F0E8E0F1E09B01AD014E0F09
:107CD0005F1FF999FECF32BD21BD819180BDFA9A17
:107CE000F99A2F5F3F4FE417F50799F76A0F7B1F4B
:107CF00070930701609306018091C00085FFFCCF5F
:107D0000F092C6008091C00085FFFCCFB092C60003
:107D1000E1CE83E00E94C73CDDCE82E00E94C73CFA
:107D2000D9CE0E94763C809309020E94763C8093D3
:107D300008028091060190910701880F991F909386
:107D40000701809306010E94763C853409F4A6C0A1
:107D500080910C028E7F80930C020E94763C8032D0
:107D600009F0B8CE8091C00085FFFCCFF092C6002C
:107D7000609108027091090261157105B9F140E046
:107D800050E080910C02A82FA170B82FB27011C0E2
:107D9000BB2309F45CC0E0910601F0910701319624
:107DA000F0930701E09306014F5F5F4F46175707B7
:107DB000E8F4AA2369F3F999FECF209106013091E6
:107DC000070132BD21BDF89A90B58091C00085FFB2
:107DD000FCCF9093C6002F5F3F4F30930701209355
:107DE00006014F5F5F4F4617570718F38091C00099
:107DF00085FDE5CE8091C00085FFF8CFE0CE81E023
:107E00000E94C73C67CE0E94763C803209F08CCE3F
:107E10008091C00085FFFCCFF092C6008091C00029
:107E200085FFFCCFE092C6008091C00085FFFCCFAB
:107E3000D092C6008091C00085FFFCCFC092C600E2
:107E40008091C00085FFFCCFB092C60043CEE09188
:107E50000601F091070194918091C00085FFFCCF4D
:107E60009093C6009CCF80E10E94C73C33CE0E9415
:107E7000763C0E94763C182F0E94763C112309F430
:107E800083C0113009F484C08FE00E94C73C22CE29
:107E900080910C02816080930C02E5CE80910C02EF
:107EA000816080930C0259CF809107018823880F4D
:107EB000880B8A2180930B02809106019091070123
:107EC000880F991F90930701809306018091080203
:107ED00080FF09C080910802909109020196909359
:107EE000090280930802F894F999FECF1127E091D6
:107EF0000601F0910701C8E0D1E08091080290915D
:107F00000902103091F40091570001700130D9F34B
:107F100003E000935700E89500915700017001308D
:107F2000D9F301E100935700E89509901990009169
:107F3000570001700130D9F301E000935700E89534
:107F40001395103498F011270091570001700130FB
:107F5000D9F305E000935700E895009157000170B0
:107F60000130D9F301E100935700E895329602976A
:107F700009F0C7CF103011F00296E5CF112480919F
:107F8000C00085FFB9CEBCCE8EE10E94C73CA2CD19
:0C7F900085E90E94C73C9ECDF894FFCF0D
:027F9C00800063
:040000030000780081
:00000001FF