:100000000C94E3000C940B010C940B010C940B0169
:100010000C940B010C940B010C940B010C940B0130
:100020000C940B010C940B010C940B010C940B0120
:100030000C940B010C940B010C940B010C940B0110
:100040000C9479090C940B010C9447090C94210928
:100050000C940B010C940B010C940B010C940B01F0
:100060000C940B010C940B0197A0895B5A0F830D24
:10007000C95F6035C2E907E18C24671E458E0863BD
:1000800025F0150A17BE0694F778EA4B001AC53E0C
:100090005EFCDBCB75230B2039B12158ED95385729
:1000A000AE147D88ABA844AF4AA547868B301BA60B
:1000B0004D929EE7536FE57A3CD385E6DC695C2977
:1000C000372EF528F4668F3641193FA101D85049E3
:1000D000D14C84BBD05912A9C8C4878274BC9F5626
:1000E000A4646DC6ADBA034034D9E2FA7C7B05CA7C
:1000F0002693767EFF5255D4CFCE3BE32F103A1194
:10010000B6BD1C2ADFB7AAD577F898022C9AA34669
:10011000DD99659BA72BAC09811627FD13626C6ED8
:100120004F71E0E8B2B97068DAF661E4FB22F2C11F
:10013000EED2900CBFB3A2F1513391EBF90EEF6BFD
:1001400031C0D61FB5C76A9DB854CCB07379322D73
:100150007F0496FE8AECCD5DDE72431D1848F38D58
:1001600080C34E42D73D9CB4970000000024002776
:10017000002A0000000000230026002900000000E3
:1001800000250028002B00040404040404040402D5
:100190000202020202030303030303010204081024
:1001A00020408001020408102001020408102000F1
:1001B0000000080002010000030407000000000026
:1001C00000000000C30911241FBECFEFD8E0DEBF3E
:1001D000CDBF24E0ACE6B1E001C01D92A93DB2075D
:1001E000E1F711E0A0E0B1E0EEE2F8E202C0059034
:1001F0000D92AC36B107D9F710E0C3EED0E004C0E1
:100200002197FE010E94E512C23ED107C9F70E9464
:10021000110A0C9415140C940000E3EEF3E0A0898D
:10022000B18982E08C93A485B5851C92A685B7859B
:1002300080E18C93108EA489B58986E08C93A28985
:10024000B3898C9180618C93A289B3898C918860E9
:100250008C93A289B3898C9180688C930288F389EE
:10026000E02D80818F7D80830895AF92BF92CF92E1
:10027000DF92EF92FF920F931F93CF93DF936C0166
:100280007B018B01040F151FEB015E01AE18BF0847
:10029000C017D10759F06991D601ED91FC910190F9
:1002A000F081E02DC6010995892B79F7C501DF9111
:1002B000CF911F910F91FF90EF90DF90CF90BF9063
:1002C000AF90089580E991E00895FC01538D448D2D
:1002D000252F30E0842F90E0821B930B541710F0F1
:1002E000CF96089501970895FC01918D828D9817FE
:1002F00061F0A28DAE0FBF2FB11D5D968C91928DD6
:100300009F5F9F73928F90E008958FEF9FEF089506
:10031000FC01918D828D981731F0828DE80FF11DCF
:10032000858D90E008958FEF9FEF0895FC01918DEA
:10033000228D892F90E0805C9F4F821B91098F73E3
:100340009927089583EE93E00E94960121E0892B7E
:1003500009F420E0822F089580E090E0892B29F0B5
:100360000E94A20181110C9400000895FC01A48D4B
:10037000A80FB92FB11DA35ABF4F2C91848D90E0C7
:1003800001968F739927848FA689B7892C93A089AA
:10039000B1898C91837080648C93938D848D981334
:1003A00006C00288F389E02D80818F7D80830895C7
:1003B000EF92FF920F931F93CF93DF93EC0181E0B5
:1003C000888F9B8D8C8D98131AC0E889F98980815C
:1003D00085FF15C09FB7F894EE89FF896083E8898F
:1003E000F98980818370806480839FBF81E090E081
:1003F000DF91CF911F910F91FF90EF900895F62E0E
:100400000B8D10E00F5F1F4F0F731127E02E8C8DA7
:100410008E110CC00FB607FCFACFE889F9898081EC
:1004200085FFF5CFCE010E94B601F1CFEB8DEC0F29
:10043000FD2FF11DE35AFF4FF0829FB7F8940B8F09
:10044000EA89FB8980818062CFCFCF93DF93EC0173
:10045000888D8823B9F0AA89BB89E889F9898C91AC
:1004600085FD03C0808186FD0DC00FB607FCF7CF68
:100470008C9185FFF2CF808185FFEDCFCE010E9468
:10048000B601E9CFDF91CF910895833081F028F450
:10049000813099F08230A9F008958730A9F0883032
:1004A000C9F08430B1F4809180008F7D03C08091C9
:1004B00080008F7780938000089584B58F7784BD06
:1004C000089584B58F7DFBCF8091B0008F778093A6
:1004D000B00008958091B0008F7DF9CFCF93DF9366
:1004E000E3EBF1E08491EFE9F1E0D491EBE8F1E0A6
:1004F000C491CC23A1F081110E944502EC2FF0E0C1
:10050000EE0FFF1FED58FE4FA591B491EC91ED2336
:1005100081E090E009F480E0DF91CF91089580E0E0
:1005200090E0FACF3FB7F8948091730190917401F5
:10053000A0917501B091760126B5A89B05C02F3F0B
:1005400019F00196A11DB11D3FBFBA2FA92F982FF9
:100550008827BC01CD01620F711D811D911D42E0F4
:10056000660F771F881F991F4A95D1F708958F92BC
:100570009F92AF92BF92CF92DF92EF92FF924B0188
:100580005C010E9492026B017C010E9492026C1934
:100590007D098E099F09683E734081059105A8F386
:1005A00021E0821A9108A108B10888EEC80E83E004
:1005B000D81EE11CF11C81149104A104B10429F797
:1005C000FF90EF90DF90CF90BF90AF909F908F9073
:1005D00008952FB7F89460916F0170917001809128
:1005E0007101909172012FBF08958F929F92AF92E7
:1005F000BF92CF92DF92EF92FF926B017C010E943B
:10060000E9024B015C01C80CD91CEA1CFB1C0E94CE
:10061000E902681579058A059B0528F0C616D706F4
:10062000E806F906A0F7FF90EF90DF90CF90BF901B
:10063000AF909F908F900895282F382F37FD2095E9
:10064000229F020E20E0211D000C221F37FD209565
:100650001124822F08955F926F927F928F929F92C2
:10066000AF92BF92CF92DF92EF92FF920F931F93C0
:10067000CF93DF93062F272FF42E652E692F70E07E
:10068000FB01E859FF4F4491420F50E0FA01E8594D
:10069000FF4FE490E60C47595F4FFA014491862CD6
:1006A000840EFB01E759FF4F7491270F30E0F901E9
:1006B000E859FF4FC490C60CF901E759FF4FE49188
:1006C0006E0E182F1695C02FC695AC2EBF2CB69463
:1006D0009B2C0E941C03D82F802F0E941C03082FE4
:1006E0008F2D0E941C03582E60E8610FD12CF6015B
:1006F000E859FF4FE4918E2F8F702C2F83FF262F08
:100700003C2F843030F08C3019F03B2D8E3009F4C2
:10071000362FE0FD2195E1FD319535952595231F77
:10072000F12CF701E859FF4FE4918E2F8F709C2F29
:1007300083FF912F3C2F843030F08C3019F03B2D0B
:100740008E3009F4312FE0FD9195E1FD3195492F6F
:1007500035954595431F942F42170CF039C0241B43
:100760007D2F279F020E20E0211D1124920F80E88B
:10077000782E7C0EA62DB0E0FD01E859FF4FE491E4
:100780008E2F8F70372D83FF362F272D843030F03A
:100790008C3019F02B2D8E3009F4262FE0FD319589
:1007A000E1FD219525953595321F482D50E0FA0140
:1007B000E859FF4FE4918E2F8F70272D83FF212F53
:1007C000843088F08C3011F08E3071F4912E0CC092
:1007D000842F821B282F3D2F239F020E20E0211DF6
:1007E0001124921BC4CF972CE0FD2195E1FD91943B
:1007F000792D75952595271F23170CF0C2C0321B44
:100800007D2F379F030E30E0311D1124922E930E61
:1008100080E8B80EF601E759FF4FE4913E2F3F7094
:100820008C2F33FF862F343008F4B7C03C3009F4E6
:10083000B6C03E3009F4B3C03B2DE0FD8195E1FD2B
:100840003195282F35952595231F822FF701E759DC
:10085000FF4FE491FE2FFF703C2FF3FF312FF43058
:1008600030F0FC3019F0AB2CFE3009F4A12EE0FD85
:100870003195E1FDA1947A2D75953595371F38177F
:100880000CF08FC0C82FC31B2C2F7D2F279F020E6B
:1008900020E0211D1124C22FC30FFD01E759FF4F96
:1008A000E4913E2F3F70872D33FF862F343008F4BC
:1008B00084C03C3019F03E3009F06B2DE0FD81958D
:1008C000E1FD6195282F65952595261F822FFA0158
:1008D000E759FF4FE4915E2F5F70372D53FF312FA3
:1008E000543008F46CC05C3019F05E3009F01B2DF8
:1008F000E0FD3195E1FD119515953595311F3817BE
:100900000CF05FC0831B482F7D2F479F040E40E0F3
:10091000411D1124340F99150CF05DC0292D291BA0
:10092000209F020E20E0211D1124920FC3170CF00E
:100930005BC03C1B309F030E30E0311D11243C0F87
:1009400093170CF05BC0391B452D349F030E30E02C
:10095000311D1124930F905C292F220F08F42FEFE3
:10096000822FDF91CF911F910F91FF90EF90DF9039
:10097000CF90BF90AF909F908F907F906F905F903F
:100980000895822F831B382F7D2F379F030E30E071
:10099000311D1124922E931A3BCF3C2F4ECF362F70
:1009A0004CCFE32FE81B2E2F7D2F279F020E20E038
:1009B000211D1124C32FC21B70CF672D7FCF172D90
:1009C00097CF432F481B2D2F429F040E40E0411D1F
:1009D0001124341BA0CF292F2919209F020E20E0BB
:1009E000211D1124921BA2CF2C2F231B209F020E0E
:1009F00020E0211D11243C2F321BA2CF292F231BC5
:100A0000752D279F020E20E0211D1124921BA3CFDC
:100A10000F931F93CF93DF9320916D012F5F322FA0
:100A2000377030936D0120FF2BC020E831FD20642A
:100A3000347009F02062205FFC01EC01239600E095
:100A400011E06485662329F070E0C8010E94B612A7
:100A50006F5F6187322F369F030E30E0311D112406
:100A6000311110C01682662311F0615061873196F2
:100A7000EC17FD0731F7DF91CF911F910F9108958A
:100A800020E0D4CF31503683EECF4F925F926F92F9
:100A90007F928F92AF92BF92CF92DF92EF920F939D
:100AA0001F93CF93DF933C01EB010E949202F3016D
:100AB00027853089621B730B6A307105B0F3F89497
:100AC000E881F9817BB170626BB16F7D6BB9CA84CB
:100AD0008F812C2D281B822F2F83BF844A805B801F
:100AE0001D850C85DE841F5F0F5FD3949E81388542
:100AF000A984EB844181D20120E0C32F522F322FF1
:100B00003181442788943111380F08F43FEF8195E3
:100B1000889410FD430F4795889411FD430F479526
:100B2000889412FD430F4795889413FD430F479512
:100B3000889414FD430F4795889415FD430F4795FE
:100B4000889416FD430F4795889417FD430F4795EA
:100B50008894232F1111242F8C0D422F002C7BB948
:100B600000C000C047FF6BB930812227889400C0C5
:100B7000002C6BB93111390F00C0002C7BB900C0BB
:100B800000C046FF6BB908F43FEF9195889400C010
:100B9000002C6BB900FD230F00C0002C7BB900C0F6
:100BA00000C045FF6BB92795889401FD230F00C055
:100BB000002C6BB92795889400C0002C7BB900C02D
:100BC00000C044FF6BB902FD230F2795889400C035
:100BD000002C6BB903FD230F00C0002C7BB900C0B3
:100BE00000C043FF6BB92795889404FD230F00C014
:100BF000002C6BB92795889400C0002C7BB900C0ED
:100C000000C042FF6BB905FD230F2795889400C0F3
:100C1000002C6BB906FD230F00C0002C7BB900C06F
:100C200000C041FF6BB92795889407FD230F00C0D2
:100C3000002C6BB92795889400C0002C7BB900C0AC
:100C400000C040FF6BB9432F0111422F9A0D00C025
:100C5000002C6BB900C000C0002C7BB900C000C0E4
:100C600047FF6BB932812227889400C0002C6BB9F2
:100C700031113C0F00C0002C7BB900C000C046FF02
:100C80006BB908F43FEFEB0DF11D00C0002C6BB900
:100C9000D0FC230F00C0002C7BB900C000C045FF72
:100CA0006BB927958894D1FC230F00C0002C6BB939
:100CB0002795889400C0002C7BB900C000C044FF79
:100CC0006BB9D2FC230F2795889400C0002C6BB918
:100CD000D3FC230F00C0002C7BB900C000C043FF31
:100CE0006BB927958894D4FC230F00C0002C6BB9F6
:100CF0002795889400C0002C7BB900C000C042FF3B
:100D00006BB9D5FC230F2795889400C0002C6BB9D4
:100D1000D6FC230F00C0002C7BB900C000C041FFEF
:100D20006BB927958894D7FC230F00C0002C6BB9B2
:100D30002795889400C0002C7BB900C000C040FFFC
:100D40006BB9432FD110422FC19500C0002C6BB955
:100D5000CE0D00C000C07BB900C000C047FF6BB91A
:100D600031812227889400C0002C6BB93111380FD3
:100D700000C0002C7BB900C000C046FF6BB908F46E
:100D80003FEF8195889400C0002C6BB910FD230FB4
:100D900000C0002C7BB900C000C045FF6BB927958F
:100DA000889411FD230F00C0002C6BB927958894FF
:100DB00000C0002C7BB900C000C044FF6BB912FD1D
:100DC000230F2795889400C0002C6BB913FD230FC7
:100DD00000C0002C7BB900C000C043FF6BB9279551
:100DE000889414FD230F00C0002C6BB927958894BC
:100DF00000C0002C7BB900C000C042FF6BB915FDDC
:100E0000230F2795889400C0002C6BB916FD230F83
:100E100000C0002C7BB900C000C041FF6BB9279512
:100E2000889417FD230F00C0002C6BB92795889478
:100E300000C0002C7BB900C000C040FF6BB9432F3D
:100E40001111422F8C0D00C0002C6BB9119709F0C5
:100E500086CE20EE31E0D2010E94CA12DC01CB0125
:100E6000F4E0B695A79597958795FA95D1F730E078
:100E700020E0B901EAE94E9E040C611D5E9E600D02
:100E8000711D1124650D711D860F971FA11DB11DC8
:100E9000893E43E09407A105B10508F434C0885E9B
:100EA0009340A109B10942E0B695A795979587951A
:100EB0004A95D1F747E0849F080E211D949F200D8D
:100EC000311D1124290F311D60916C0170E0860FD6
:100ED000971F820F931F40916F0150917001609195
:100EE000710170917201292F3327420F531F611D29
:100EF000711D40936F015093700160937101709365
:100F0000720180936C0178940E949202F301708BBD
:100F10006787DF91CF911F910F91EF90DF90CF9076
:100F2000BF90AF908F907F906F905F904F9008959B
:100F3000559A08950F931F93CF93DF93CDB7DEB7E4
:100F400062970FB6F894DEBF0FBECDBF8C01F901DA
:100F5000DC011C968C917A8369835C834B835E836E
:100F60004D8390819D8791819E8792819F8781305B
:100F7000F1F4CE0101960E94080583E0888B1A8A5D
:100F8000198AD801ED91FC910484F585E02DBE010C
:100F90006F5F7F4FC801099562960FB6F894DEBF68
:100FA0000FBECDBFDF91CF911F910F9108951C8689
:100FB0001B861A86198618861F82DFCF0F931F9310
:100FC000CF93DF93CDB7DEB762970FB6F894DEBF4D
:100FD0000FBECDBF8C01F901DC011C968C917A8388
:100FE00069835C834B835E834D8390819D87918170
:100FF0009E8792819F878130E9F4CE0101960E94FD
:101000000805188A1A8A198AD801ED91FC9104847E
:10101000F585E02DBE016F5F7F4FC801099562968F
:101020000FB6F894DEBF0FBECDBFDF91CF911F91F9
:101030000F9108951C861B861A86198618861F82B2
:10104000E0CF90E080E00895FC01858596850895C5
:10105000CF93DF9300D000D000D0CDB7DEB7AB0187
:101060001C821D821E82DC01ED91FC910190F081B9
:10107000E02D19821A821B829E012F5F3F4FBE0115
:101080006C5F7F4F099526960FB6F894DEBF0FBEB2
:10109000CDBFDF91CF910895EF92FF920F931F93F1
:1010A000CF93DF9300D000D0CDB7DEB783EE93E0CF
:1010B0000E94740183EE93E00E94740110E08A3371
:1010C00079F0E1E0F0E0EC0FFD1FE10FF11D17FDFD
:1010D000FA9580831F5F83EE93E00E947401EFCF47
:1010E000CE0101960E945E108C0183EE93E00E9477
:1010F0007401282F2053330B790132E0E316F104F9
:1011000020F598013327F901E155FE4F8491F9014B
:10111000E556FE4F0491F901E957FE4F1491112352
:10112000A1F081110E944502E12FF0E0EE0FFF1FB8
:10113000E358FE4FA591B4918FB7F894EC91E1106C
:1011400020C000950E230C938FBF83EE93E00E9486
:1011500074018A3011F08D30C1F783EE93E00E9464
:1011600088018A3081F483EE93E00F900F900F9006
:101170000F90DF91CF911F910F91FF90EF900C9402
:1011800074010E2BE0CF0F900F900F900F90DF9116
:10119000CF911F910F91FF90EF900895FC01019066
:1011A0000020E9F73197AF01481B590BBC0183EED2
:1011B00093E00C9435018F929F92AF92BF920F9360
:1011C0001F93CF93DF93CDB7DEB7A1970FB6F894F7
:1011D000DEBF0FBECDBF19A2423008F44AE08E0137
:1011E0000F5D1F4F842E912CB12CA12CA5019401D1
:1011F0000E949B11E62FB901CA01EA30F4F4E05DC8
:10120000D801EE938D01232B242B252B79F790E029
:1012100080E0109719F0CD010E94CE08A1960FB67C
:10122000F894DEBF0FBECDBFDF91CF911F910F911C
:10123000BF90AF909F908F900895E95CE1CF0E949E
:1012400010141F920F920FB60F9211242F933F93F9
:101250004F935F936F937F938F939F93AF93BF93BE
:10126000EF93FF9383EE93E00E94B601FF91EF911D
:10127000BF91AF919F918F917F916F915F914F91AE
:101280003F912F910F900FBE0F901F9018951F92B6
:101290000F920FB60F9211242F938F939F93EF937A
:1012A000FF93E091F303F091F4038081E091F9035F
:1012B000F091FA0382FD1BC090818091FC038F5F47
:1012C0008F732091FD03821741F0E091FC03F0E061
:1012D000ED51FC4F958F8093FC03FF91EF919F910F
:1012E0008F912F910F900FBE0F901F9018958081B6
:1012F000F4CF1F920F920FB60F9211242F933F93AA
:101300008F939F93AF93BF9380916F0190917001E2
:10131000A0917101B091720130916E0123E0230F11
:101320002D3758F50196A11DB11D20936E018093B4
:101330006F0190937001A0937101B093720180913D
:10134000730190917401A0917501B091760101969D
:10135000A11DB11D8093730190937401A093750139
:10136000B0937601BF91AF919F918F913F912F9153
:101370000F900FBE0F901F90189526E8230F02962E
:10138000A11DB11DD2CFE3EEF3E01382128288EEED
:1013900093E0A0E0B0E084839583A683B7838EE2D8
:1013A00091E09183808385EC90E09587848784EC3D
:1013B00090E09787868780EC90E0918B808B81EC22
:1013C00090E0938B828B82EC90E0958B848B86EC03
:1013D00090E0978B868B118E128E138E148EE0E820
:1013E000F4E08FEF808312821182148613868FEFD0
:1013F0009FEFDC0187839087A187B287EDE8F4E057
:101400001682178210861186128613861486158618
:1014100016861786108A118A128A138A148A158AE8
:101420000895CF93DF9300D01F92CDB7DEB77894A5
:1014300084B5826084BD84B5816084BD85B58260D9
:1014400085BD85B5816085BD80916E00816080938A
:101450006E001092810080918100826080938100F3
:101460008091810081608093810080918000816003
:10147000809380008091B10084608093B10080915E
:10148000B00081608093B00080917A008460809386
:101490007A0080917A00826080937A0080917A004D
:1014A000816080937A0080917A00806880937A00CE
:1014B0001092C1001092CF041092D0041092D10467
:1014C0001092D20410928F04109290041092910402
:1014D0001092920468EB7BE080E090E00E94F502BD
:1014E00068EE73E080E090E00E94B7020E940D0178
:1014F0000E94E90260938F0470939004809391049A
:10150000909392048CE391E00E94CE086AE070E030
:1015100080E090E00E94F50211E01093A3040E9485
:10152000E90260938F0470939004809391049093E8
:1015300092048DE491E00E94CE080E940D0168EEB5
:1015400073E080E090E00E94B70280918A018111EF
:1015500044C010927C0110927B018FEF80937F0139
:101560008093800180938101809382018093830125
:101570008093840110938501109287011092860157
:1015800010927E0110927D018091D8039091D90331
:10159000892B31F489E791E09093D9038093D803A4
:1015A000E0917701F0917801309721F089E791E09F
:1015B0009583848389E791E0909378018093770104
:1015C00010928901109288018CE191E090937A0148
:1015D0008093790181E080938A01559A82E991E0B4
:1015E00090937C0180937B0180EC90E09093870145
:1015F000809386018091830490918404A091850456
:10160000B0918604843C29E09207A105B10520F43D
:1016100084EC99E0A0E0B0E080938304909384048C
:10162000A0938504B09386048FEF80937F0190EBA5
:101630009093800190EF90938101809380048AE0E1
:1016400090E00E94EB12FC0100ECE02EF12CF18204
:10165000E08282E9C82E81E0D82ED382C282148231
:101660001582168217821186108684E190E00E940E
:10167000EB128C01DC011196DC92CE921396FC9257
:10168000EE92129785E090E019969C938E931897AE
:1016900084E690E01F969C938E931E97F801108A23
:1016A000118A128A138AF12CE12C80E492E00E94C4
:1016B000EB12D8011496ED91FC91EE0DFF1D918374
:1016C0008083B2E0EB0EF11CEAE0EE16F10469F75C
:1016D00085E090E0D80117969C938E93169710930F
:1016E000DF030093DE0381E090E0A0E0B0E0F801CA
:1016F00082879387A487B587EFE9F1E02491EBE82F
:10170000F1E084918823C9F090E0880F991FFC01D3
:10171000E759FE4F45915491FC01E358FE4FA591C6
:10172000B4919FB7F894FA01808120958223808339
:101730008C91E22FE823EC939FBFB8EE2B2EB3E001
:101740003B2E0E946E020197C9F48091E203811141
:1017500015C08091E0039091E10301969093E1031D
:101760008093E00380910001909101018A309105FE
:101770000CF0A9C081E08093E20305C00E946E02D4
:10178000892B09F4A6C00091DE031091DF03D80174
:101790001A968C9180FFAEC00E94E902F801C088C1
:1017A000D188E288F3889B01AC012C193D094E09D0
:1017B0005F0969017A0166857785C1010E94B612C9
:1017C000CB01770FAA0BBB0BC816D906EA06FB069E
:1017D00008F490C0B12CA12CF12CE12CD801129668
:1017E0008D919C911397E816F9060CF07AC05096EB
:1017F0006D917C91BAE0B69FA001B79F500D112466
:101800004E0D5F1DC5010E942B03682F70E090E014
:1018100080E00E94921020E030E04FE753E40E9405
:101820000E122B013C01F80160897189FEE1F69FDF
:10183000A001F79F500D11244E0D5F1DC7010E949E
:101840002B03D80150966D917C91ECE2F1E06E9FF4
:10185000A0016F9F500D7E9F500D11244E0D5F1DF6
:10186000C7010E942B03D8011496ED91FC916701EA
:10187000CC0CDD1CCE0CDF1C80819181C80ED91EE2
:1018800020E030E04FE753E4C301B2010E94CD10E5
:101890000E948012F601608320E030E040E852E4CC
:1018A000C301B2010E94CD100E948012D601119690
:1018B0006C93119712961C92BFEFEB1AFB0AEAE0A9
:1018C000AE0EB11C8BCF0A9790930101809300015B
:1018D00051CF8091E203882309F455CF1092E2039F
:1018E00052CF0E94E902D80150966D937D938D935B
:1018F0009C935397CC24C394D12C75E6B72EF80152
:1019000086819781C816D9060CF094C1808591858F
:10191000C816D9060CF091C124EF31E040E050E048
:1019200020939B0430939C0440939D0450939E0409
:1019300010929F041092A0041092A1041092A2048D
:101940008091930490919404A0919504B091960491
:101950008093970490939804A0939904B0939A0469
:101960000E94E90260939304709394048093950419
:101970009093960483EE93E00E948801843611F4DC
:101980000E944C080E94E90240908F0450909004FD
:101990006090910470909204DC01CB018419950948
:1019A000A609B70981329105A105B10560F421E2CC
:1019B00030E040E050E0281B390B4A0B5B0BCA01BA
:1019C000B9010E94F5020E94E90260938F047093AE
:1019D000900480939104909392040E94E9022B0159
:1019E0003C0184E591E00E94CE084AE061E070E0AD
:1019F00080E090E00E94DB088BE591E00E94CE0839
:101A00004AE0C301B2010E94DB088DE591E00E942B
:101A1000CE088091930490919404A0919504B09184
:101A20009604A3019201281B390B4A0B5B0BCA01D8
:101A3000B9014AE00E94DB088DE591E00E94CE08E2
:101A40006091930470919404809195049091960410
:101A500040909704509098046090990470909A0474
:101A600064197509860997094AE00E94DB088FE529
:101A700091E00E94CE08D80116964D905C90052CFE
:101A8000000C660877084AE0C301B20177FE0DC07A
:101A90006DE283EE93E00E94D80166277727CB01A1
:101AA00064197509860997094AE00E94DB0881E6F6
:101AB00091E00E94CE0888E691E00E94CE0862E0A4
:101AC00070E080E090E00E94F50283EE93E00E94D7
:101AD0009601882309F46EC06EE170E080E090E02A
:101AE0000E94F5028091A4048637B9F083EE93E05A
:101AF0000E948801863761F483EE93E00E947401AE
:101B00008093A40483EE93E00E9474018093A50463
:101B10008091A404863709F04DC06AE070E080E04F
:101B200090E00E94F5028091A504813009F042C046
:101B300083EE93E00E9474018093A604811138C063
:101B40006AE070E080E090E00E94F50283EE93E0AE
:101B50000E94740183EE93E00E9474017C01782E50
:101B600057EA852E54E0952EA12CA71448F483EE55
:101B700093E00E947401F40181934F01A394F5CF87
:101B8000F701FF27E357FB4F128E4AE050E070E069
:101B900060E087EA94E00E94470FD80117967C9393
:101BA0006E9316976AE070E080E090E00E94B702C2
:101BB000B092A40483EE93E00E948801843611F46D
:101BC0000E944C080E94E90260939304709394046D
:101BD0008093950490939604B601660F771F90E06A
:101BE00080E0F8012281338182179307FCF4A481FD
:101BF000B581AC01440F551F480F591FFD01E60F79
:101C0000F71F0190F081E02DE40FF51F0D90BC91BE
:101C1000A02DA40FB51F20812C93218111962C9308
:101C20001197228112962C930196DBCFFFEFCF1AEA
:101C3000DF0A65CE181619067CF5D8011496ED91C9
:101C4000FC9180819181892B39F190E080E0F8014D
:101C50002281338182179307FCF4FC01EE0FFF1FF2
:101C6000AF01480F591FD8011496ED91FC91A08146
:101C7000B181A40FB51FF80120813181FA01E20F73
:101C8000F31F2C91208311962C911197218312968A
:101C90002C9122830196DBCFF09080048091830405
:101CA00090918404A0918504B0918604892B8A2B9D
:101CB0008B2BD9F00E9492020091DA031091DB0382
:101CC0002091DC033091DD03601B710B820B930BC1
:101CD000009183041091840420918504309186043E
:101CE0006017710782079307C8F20E9492026093FF
:101CF000DA037093DB038093DC039093DD03E091C0
:101D00008B04F0918C04309759F0409187045091E6
:101D100088046091890470918A048F2D0995F82EAA
:101D20000091D8031091D9038F2C912CB12CA12CA8
:101D30000115110509F45DC0D8011C96EC901C97A3
:101D400080918104909182048436910510F41C9650
:101D50001C92D801ED91FC914280538019821A8225
:101D60001B82FF2099F16801B6E0CB0ED11CF0E098
:101D7000E0E0D6012D916D01222321F112967C9095
:101D8000772001F130E050E040E02F5F3F4F4F4FB0
:101D90005F4FC501B4010E948B119B01AC01872DDF
:101DA00090E0B0E0A0E0BC01CD016F5F7F4F8F4FAE
:101DB0009F4F0E948B11A1E0B0E0AC0FBD1FAE0F92
:101DC000BF1F8C933196E330F10599F6F8014585F4
:101DD0005685628173819E012F5F3F4FC801F201DA
:101DE0000995D8011C96EC921C9714960D911C91A4
:101DF0009FCF8091D6039091D7038C010F5F1F4F27
:101E00001093D7030093D6034997A4F10E94E902E7
:101E1000C090D203D090D303E090D403F090D503C8
:101E20009B01AC012C193D094E095F0921F421E009
:101E300030E040E050E0029DB001039D700D129D26
:101E4000700D1124072E000C880B990B0E949B111A
:101E500030938204209381041092D7031092D6030A
:101E60000E94E9026093D2037093D3038093D4035A
:101E70009093D50380E090E0892B09F462CC0E9416
:101E8000A201882309F45DCC0E9400005ACCB0E086
:101E9000A0E0EDE4FFE00C94C9115C016B017A0154
:101EA0006115710519F0FB0191838083E114F10440
:101EB00051F0C7010297839730F040E030E020E016
:101EC00090E072C05E01E5012196F5011081812F3D
:101ED00090E00E947C10892BA9F71D3201F5219614
:101EE000F501118101E0E114F10409F4DAC0F0E137
:101EF000EF16F10409F082C0103359F488818F7D08
:101F0000883509F076C0198122960260F0E1EF2E43
:101F1000F12C812C912CA12C88E0B82E8CC01B3286
:101F200021F4E5012296F501118100E0DCCFEAE021
:101F3000EE16F10409F4BBC0F0E1EF16F10409F06C
:101F40006DC0E7CF78E0E72EF12C812C912CA12CED
:101F500060E1B62E70C03FE9310F3A3128F439EA1A
:101F6000332E80C021E09AC0302F3170C114D104CB
:101F700031F0222309F12197F601D183C08327FF95
:101F800021C060E070E080E090E8311104C06FEFA4
:101F90007FEF8FEF9FE722E230E03093D40420936D
:101FA000D304462F372F282F642F732F822FCDB7BE
:101FB000DEB7E1E10C94E51101FF04C02297F601C0
:101FC000D183C083332341F09095809570956195BE
:101FD0007F4F8F4F9F4FE5CF97FFE3CF82E290E097
:101FE0009093D4048093D3046FEF7FEF8FEF9FE73C
:101FF000D8CF10E3E114F10409F4A4CF28E0E216ED
:10200000F10409F4A2CF0CF092CF812C912CA12CD9
:10201000E0E4BE2E82E0E816F10469F060E070E0D2
:1020200080E090E897010F2C000C440B550B0E94A8
:102030009B1149015A0120E060E070E0CB012701CB
:102040000F2C000C66087708FE0150ED352E310E7E
:1020500039E0331540F43FEB310F3A3108F07BCFD4
:1020600049EC342E310E3E141F040CF07DCF27FDB9
:1020700015C086169706A806B90678F0A301920146
:102080000E948B11630D711D811D911D61307105C1
:10209000810520E8920708F465CF2FEF2196108183
:1020A000D3CF103309F42ACF2AE0E22EF12C9CEC96
:1020B000892E982CA82C9CE0B92EBDCFFC01882736
:1020C0009927E89421912032E9F3293010F02E303D
:1020D000C8F32B3241F02D3239F4689404C00E94C9
:1020E0008510820F911D219120532A30C0F31EF4D8
:1020F000909581959F4F089591110C948D10803289
:1021000019F089508550C8F708957AE0979F902D6F
:10211000879F802D910D1124089599278827089570
:10212000E89409C097FB3EF4909580957095619571
:102130007F4F8F4F9F4F9923A9F0F92F96E9BB2727
:102140009395F695879577956795B795F111F8CFA3
:10215000FAF4BB0F11F460FF1BC06F5F7F4F8F4F0E
:102160009F4F16C0882311F096E911C0772321F004
:102170009EE8872F762F05C0662371F096E8862F9C
:1021800070E060E02AF09A95660F771F881FDAF7F3
:10219000880F9695879597F908950E94E0100C9402
:1021A00051110E94431138F00E944A1120F09523EA
:1021B00011F00C943A110C94401111240C948511D7
:1021C0000E94621170F3959FC1F3950F50E0551F67
:1021D000629FF001729FBB27F00DB11D639FAA277C
:1021E000F00DB11DAA1F649F6627B00DA11D661FCB
:1021F000829F2227B00DA11D621F739FB00DA11DEC
:10220000621F839FA00D611D221F749F3327A00DA5
:10221000611D231F849F600D211D822F762F6A2F41
:1022200011249F5750409AF0F1F088234AF0EE0FA6
:10223000FF1FBB1F661F771F881F91505040A9F7D3
:102240009E3F510580F00C943A110C9485115F3F2C
:10225000E4F3983ED4F3869577956795B795F7950F
:10226000E7959F5FC1F7FE2B880F911D9695879587
:1022700097F9089597F99F6780E870E060E0089506
:102280009FEF80EC089500240A941616170618068E
:102290000906089500240A9412161306140605066A
:1022A0000895092E0394000C11F4882352F0BB0FFB
:1022B00040F4BF2B11F460FF04C06F5F7F4F8F4F5E
:1022C0009F4F089557FD9058440F551F59F05F3F99
:1022D00071F04795880F97FB991F61F09F3F79F048
:1022E00087950895121613061406551FF2CF4695CA
:1022F000F1DF08C0161617061806991FF1CF86954C
:102300007105610508940895E894BB27662777272F
:10231000CB0197F90895DB018F939F930E94BD1124
:10232000BF91AF91A29F800D911DA39F900DB29F71
:10233000900D11240895A1E21A2EAA1BBB1BFD01CA
:102340000DC0AA1FBB1FEE1FFF1FA217B307E40794
:10235000F50720F0A21BB30BE40BF50B661F771FEC
:10236000881F991F1A9469F76095709580959095CC
:102370009B01AC01BD01CF0108950E94FF11A59FF3
:10238000900DB49F900DA49F800D911D1124089570
:102390002F923F924F925F926F927F928F929F9275
:1023A000AF92BF92CF92DF92EF92FF920F931F9363
:1023B000CF93DF93CDB7DEB7CA1BDB0B0FB6F89414
:1023C000DEBF0FBECDBF09942A88398848885F8454
:1023D0006E847D848C849B84AA84B984C884DF80C5
:1023E000EE80FD800C811B81AA81B981CE0FD11DA9
:1023F0000FB6F894DEBF0FBECDBFED010895A29FCA
:10240000B001B39FC001A39F700D811D1124911DC8
:10241000B29F700D811D1124911D08950E942212FA
:102420000C9451110E944A1158F00E94431140F03F
:1024300029F45F3F29F00C943A1151110C94851145
:102440000C9440110E94621168F39923B1F3552353
:1024500091F3951B550BBB27AA27621773078407B7
:1024600038F09F5F5F4F220F331F441FAA1FA9F34D
:1024700035D00E2E3AF0E0E832D091505040E6953B
:10248000001CCAF72BD0FE2F29D0660F771F881F9C
:10249000BB1F261737074807AB07B0E809F0BB0B8F
:1024A000802DBF01FF2793585F4F3AF09E3F5105A3
:1024B00078F00C943A110C9485115F3FE4F3983E48
:1024C000D4F3869577956795B795F7959F5FC9F78C
:1024D000880F911D9695879597F90895E1E0660F0D
:1024E000771F881FBB1F621773078407BA0720F086
:1024F000621B730B840BBA0BEE1F88F7E0950895EF
:102500000E9487126894B1110C94851108950E945D
:102510006A1188F09F5798F0B92F9927B751B0F0FA
:10252000E1F0660F771F881F991F1AF0BA95C9F757
:1025300014C0B13091F00E948411B1E008950C9460
:102540008411672F782F8827B85F39F0B93FCCF313
:10255000869577956795B395D9F73EF490958095D4
:10256000709561957F4F8F4F9F4F089597FB072E72
:1025700016F4009407D077FD09D00E94D11207FC11
:1025800005D03EF4909581959F4F08957095619583
:102590007F4F08950E94FF11B7FF0895821B930B90
:1025A0000895AA1BBB1B51E107C0AA1FBB1FA6179A
:1025B000B70710F0A61BB70B881F991F5A95A9F7EC
:1025C00080959095BC01CD010895EE0FFF1F0590F9
:1025D000F491E02D09940F931F93CF93DF938230F2
:1025E000910510F482E090E0E091D704F091D804D6
:1025F00030E020E0B0E0A0E0309799F421153105FB
:1026000009F44AC0281B390B24303105D8F58A81DA
:102610009B816115710589F1FB0193838283FE0122
:1026200011C0408151810281138148175907E0F0A0
:102630004817590799F4109761F012960C93129766
:1026400013961C933296CF01DF91CF911F910F917A
:1026500008950093D7041093D804F4CF21153105C1
:1026600051F04217530738F0A901DB019A01BD016F
:10267000DF01F801C1CFEF01F9CF9093D804809327
:10268000D704CDCFFE01E20FF31F81939193225027
:10269000310939832883D7CF2091D5043091D604CE
:1026A000232B41F420910401309105013093D6048D
:1026B0002093D504209102013091030121153105A9
:1026C00041F42DB73EB74091060150910701241BFC
:1026D000350BE091D504F091D604E217F307A0F48E
:1026E0002E1B3F0B2817390778F0AC014E5F5F4F68
:1026F0002417350748F04E0F5F1F5093D6044093C0
:10270000D504819391939FCFF0E0E0E09CCFCF93ED
:10271000DF930097E9F0FC01329713821282A091B7
:10272000D704B091D804ED0130E020E01097A1F477
:1027300020813181820F931F2091D5043091D604DE
:102740002817390709F061C0F093D604E093D50447
:10275000DF91CF910895EA01CE17DF07E8F54A81AE
:102760005B819E0141155105B1F7E901FB83EA83C5
:1027700049915991C40FD51FEC17FD0761F4808171
:1027800091810296840F951FE90199838883828144
:1027900093819B838A83F0E0E0E012968D919C9177
:1027A00013970097B9F52D913C911197CD010296A1
:1027B000820F931F2091D5043091D6042817390732
:1027C00039F6309751F51092D8041092D704B0938F
:1027D000D604A093D504BCCFD383C283408151815A
:1027E000840F951FC817D90761F44E5F5F4F88812A
:1027F0009981480F591F518340838A819B8193831C
:1028000082832115310509F0B0CFF093D804E0930D
:10281000D7049ECFFD01DC01C0CF13821282D7CF37
:0E28200081E090E0F8940C941514F894FFCF2A
:10282E0064000000D9048000000000001F091F0989
:10283E001F0928082408210800000000DE079A0757
:10284E009807280824086201450500000000D801F9
:10285E00350165012502960174018801564D4450DB
:10286E00565F317C315F564D4450560A00564D44EA
:10287E0050525F00564D4450455F003A323A007C4C
:0C288E00005F564D445045000D0A00004C
:107800000C94343C0C94513C0C94513C0C94513CE1
:107810000C94513C0C94513C0C94513C0C94513CB4
:107820000C94513C0C94513C0C94513C0C94513CA4
:107830000C94513C0C94513C0C94513C0C94513C94
:107840000C94513C0C94513C0C94513C0C94513C84
:107850000C94513C0C94513C0C94513C0C94513C74
:107860000C94513C0C94513C11241FBECFEFD8E036
:10787000DEBFCDBF11E0A0E0B1E0ECE9FFE702C060
:1078800005900D92A230B107D9F712E0A2E0B1E065
:1078900001C01D92AD30B107E1F70E942D3D0C945F
:1078A000CC3F0C94003C982F959595959595959582
:1078B000905D8F708A307CF0282F295A8091C0000B
:1078C00085FFFCCF9093C6008091C00085FFFCCF60
:1078D0002093C6000895282F205DF0CF982F809127
:1078E000C00085FFFCCF9093C6000895EF92FF92F1
:1078F0000F931F93EE24FF2487018091C00087FD22
:1079000017C00894E11CF11C011D111D81E4E8164B
:1079100082E4F8068FE0080780E0180770F3E09132
:107920000401F091050109958091C00087FFE9CF1E
:107930008091C6001F910F91FF90EF9008950E94D3
:10794000763C982F8091C00085FFFCCF9093C600B5
:1079500091362CF490330CF09053892F089597555D
:10796000892F08951F930E949F3C182F0E949F3CCF
:107970001295107F810F1F9108951F93182F882350
:1079800021F00E94763C1150E1F71F9108951F935A
:10799000182F0E94763C803249F0809103018F5F5E
:1079A000809303018530C1F01F9108958091C0003C
:1079B00085FFFCCF84E18093C6008091C00085FFE5
:1079C000FCCF1093C6008091C00085FFFCCF80E102
:1079D0008093C6001F910895E0910401F091050184
:1079E00009951F9108950E94763C803241F0809164
:1079F00003018F5F80930301853081F008958091AA
:107A0000C00085FFFCCF84E18093C6008091C00058
:107A100085FFFCCF80E18093C6000895E0910401CA
:107A2000F09105010995089540E951E08823A1F0FE
:107A30002D9A28EE33E0FA013197F1F721503040CA
:107A4000D1F72D9828EE33E0FA013197F1F7215064
:107A50003040D1F7815061F708953F924F925F9285
:107A60006F927F928F929F92AF92BF92CF92DF924E
:107A7000EF92FF920F931F93CF93DF93000080E16B
:107A80008093C4001092C50088E18093C10086E015
:107A90008093C2005098589A259A81E00E94143D24
:107AA00024E1F22E9EE1E92E85E9D82E0FE0C02ECA
:107AB00010E1B12EAA24A394B1E49B2EA6E58A2E50
:107AC000F2E57F2EE0E26E2E79E4572E63E5462E36
:107AD00050E5352E0E94763C8033B1F18133B9F107
:107AE000803409F46FC0813409F476C0823409F41B
:107AF00085C0853409F488C0803531F1823521F1A3
:107B0000813511F1853509F485C0863509F48DC0BC
:107B1000843609F496C0843709F403C1853709F423
:107B200072C1863709F466C0809103018F5F80932C
:107B30000301853079F6E0910401F0910501099582
:107B40000E94763C803351F60E94F33CC3CF0E94E2
:107B5000763C803249F78091C00085FFFCCFF092DF
:107B6000C6008091C00085FFFCCF9092C600809136
:107B7000C00085FFFCCF8092C6008091C00085FFC9
:107B8000FCCF7092C6008091C00085FFFCCF609250
:107B9000C6008091C00085FFFCCF5092C600809146
:107BA000C00085FFFCCF4092C6008091C00085FFD9
:107BB000FCCF3092C6008091C00085FFFCCFB09210
:107BC000C60088CF0E94763C863808F4BDCF0E945C
:107BD000763C0E94F33C7ECF0E94763C803809F4CC
:107BE0009CC0813809F40BC1823809F43CC1883942
:107BF00009F48FC080E00E94C73C6CCF84E10E94F2
:107C0000BD3C0E94F33C66CF85E00E94BD3C0E94D3
:107C1000F33C60CF0E94763C809306010E94763C44
:107C2000809307010E94F33C55CF0E94763C80333D
:107C300009F41DC183E00E94BD3C80E00E94C73C66
:107C400049CF0E94763C809309020E94763C809343
:107C5000080280910C028E7F80930C020E94763C79
:107C6000853409F415C18091080290910902892B8D
:107C700089F000E010E00E94763CF801E85FFE4FDA
:107C800080830F5F1F4F80910802909109020817AF
:107C9000190788F30E94763C803209F045CF809125
:107CA0000C0280FF01C16091060170910701660F0F
:107CB000771F7093070160930601A0910802B091AD
:107CC00009021097C9F0E8E0F1E09B01AD014E0F09
:107CD0005F1FF999FECF32BD21BD819180BDFA9A17
:107CE000F99A2F5F3F4FE417F50799F76A0F7B1F4B
:107CF00070930701609306018091C00085FFFCCF5F
:107D0000F092C6008091C00085FFFCCFB092C60003
:107D1000E1CE83E00E94C73CDDCE82E00E94C73CFA
:107D2000D9CE0E94763C809309020E94763C8093D3
:107D300008028091060190910701880F991F909386
:107D40000701809306010E94763C853409F4A6C0A1
:107D500080910C028E7F80930C020E94763C8032D0
:107D600009F0B8CE8091C00085FFFCCFF092C6002C
:107D7000609108027091090261157105B9F140E046
:107D800050E080910C02A82FA170B82FB27011C0E2
:107D9000BB2309F45CC0E0910601F0910701319624
:107DA000F0930701E09306014F5F5F4F46175707B7
:107DB000E8F4AA2369F3F999FECF209106013091E6
:107DC000070132BD21BDF89A90B58091C00085FFB2
:107DD000FCCF9093C6002F5F3F4F30930701209355
:107DE00006014F5F5F4F4617570718F38091C00099
:107DF00085FDE5CE8091C00085FFF8CFE0CE81E023
:107E00000E94C73C67CE0E94763C803209F08CCE3F
:107E10008091C00085FFFCCFF092C6008091C00029
:107E200085FFFCCFE092C6008091C00085FFFCCFAB
:107E3000D092C6008091C00085FFFCCFC092C600E2
:107E40008091C00085FFFCCFB092C60043CEE09188
:107E50000601F091070194918091C00085FFFCCF4D
:107E60009093C6009CCF80E10E94C73C33CE0E9415
:107E7000763C0E94763C182F0E94763C112309F430
:107E800083C0113009F484C08FE00E94C73C22CE29
:107E900080910C02816080930C02E5CE80910C02EF
:107EA000816080930C0259CF809107018823880F4D
:107EB000880B8A2180930B02809106019091070123
:107EC000880F991F90930701809306018091080203
:107ED00080FF09C080910802909109020196909359
:107EE000090280930802F894F999FECF1127E091D6
:107EF0000601F0910701C8E0D1E08091080290915D
:107F00000902103091F40091570001700130D9F34B
:107F100003E000935700E89500915700017001308D
:107F2000D9F301E100935700E89509901990009169
:107F3000570001700130D9F301E000935700E89534
:107F40001395103498F011270091570001700130FB
:107F5000D9F305E000935700E895009157000170B0
:107F60000130D9F301E100935700E895329602976A
:107F700009F0C7CF103011F00296E5CF112480919F
:107F8000C00085FFB9CEBCCE8EE10E94C73CA2CD19
:0C7F900085E90E94C73C9ECDF894FFCF0D
:027F9C00800063
:040000030000780081
:00000001FF